{
  "_format": "hh-sol-artifact-1",
  "contractName": "Bank",
  "sourceName": "contracts/Bank.sol",
  "abi": [
    {
      "inputs": [],
      "stateMutability": "nonpayable",
      "type": "constructor"
    },
    {
      "anonymous": false,
      "inputs": [
        {
          "indexed": true,
          "internalType": "address",
          "name": "previousOwner",
          "type": "address"
        },
        {
          "indexed": true,
          "internalType": "address",
          "name": "newOwner",
          "type": "address"
        }
      ],
      "name": "OwnershipTransferred",
      "type": "event"
    },
    {
      "inputs": [
        {
          "internalType": "address",
          "name": "",
          "type": "address"
        },
        {
          "internalType": "bytes32",
          "name": "",
          "type": "bytes32"
        }
      ],
      "name": "balances",
      "outputs": [
        {
          "internalType": "uint256",
          "name": "",
          "type": "uint256"
        }
      ],
      "stateMutability": "view",
      "type": "function"
    },
    {
      "inputs": [
        {
          "internalType": "uint256",
          "name": "_amount",
          "type": "uint256"
        },
        {
          "internalType": "bytes32",
          "name": "_symbol",
          "type": "bytes32"
        }
      ],
      "name": "depositTokens",
      "outputs": [],
      "stateMutability": "nonpayable",
      "type": "function"
    },
    {
      "inputs": [
        {
          "internalType": "bytes32",
          "name": "_symbol",
          "type": "bytes32"
        }
      ],
      "name": "getTokenBalance",
      "outputs": [
        {
          "internalType": "uint256",
          "name": "",
          "type": "uint256"
        }
      ],
      "stateMutability": "view",
      "type": "function"
    },
    {
      "inputs": [],
      "name": "getWhitelistedSymbols",
      "outputs": [
        {
          "internalType": "bytes32[]",
          "name": "",
          "type": "bytes32[]"
        }
      ],
      "stateMutability": "view",
      "type": "function"
    },
    {
      "inputs": [
        {
          "internalType": "bytes32",
          "name": "_symbol",
          "type": "bytes32"
        }
      ],
      "name": "getWhitelistedTokenAddress",
      "outputs": [
        {
          "internalType": "address",
          "name": "",
          "type": "address"
        }
      ],
      "stateMutability": "view",
      "type": "function"
    },
    {
      "inputs": [],
      "name": "owner",
      "outputs": [
        {
          "internalType": "address",
          "name": "",
          "type": "address"
        }
      ],
      "stateMutability": "view",
      "type": "function"
    },
    {
      "inputs": [],
      "name": "renounceOwnership",
      "outputs": [],
      "stateMutability": "nonpayable",
      "type": "function"
    },
    {
      "inputs": [
        {
          "internalType": "address",
          "name": "newOwner",
          "type": "address"
        }
      ],
      "name": "transferOwnership",
      "outputs": [],
      "stateMutability": "nonpayable",
      "type": "function"
    },
    {
      "inputs": [
        {
          "internalType": "bytes32",
          "name": "_symbol",
          "type": "bytes32"
        },
        {
          "internalType": "address",
          "name": "_tokenAddress",
          "type": "address"
        }
      ],
      "name": "whitelistToken",
      "outputs": [],
      "stateMutability": "nonpayable",
      "type": "function"
    },
    {
      "inputs": [
        {
          "internalType": "uint256",
          "name": "",
          "type": "uint256"
        }
      ],
      "name": "whitelistedSymbols",
      "outputs": [
        {
          "internalType": "bytes32",
          "name": "",
          "type": "bytes32"
        }
      ],
      "stateMutability": "view",
      "type": "function"
    },
    {
      "inputs": [
        {
          "internalType": "bytes32",
          "name": "",
          "type": "bytes32"
        }
      ],
      "name": "whitelistedTokens",
      "outputs": [
        {
          "internalType": "address",
          "name": "",
          "type": "address"
        }
      ],
      "stateMutability": "view",
      "type": "function"
    },
    {
      "inputs": [
        {
          "internalType": "uint256",
          "name": "_amount",
          "type": "uint256"
        }
      ],
      "name": "withdrawEther",
      "outputs": [],
      "stateMutability": "nonpayable",
      "type": "function"
    },
    {
      "inputs": [
        {
          "internalType": "uint256",
          "name": "_amount",
          "type": "uint256"
        },
        {
          "internalType": "bytes32",
          "name": "_symbol",
          "type": "bytes32"
        }
      ],
      "name": "withdrawTokens",
      "outputs": [],
      "stateMutability": "nonpayable",
      "type": "function"
    },
    {
      "stateMutability": "payable",
      "type": "receive"
    }
  ],
  "bytecode": "0x608060405234801561001057600080fd5b5061002d61002261003260201b60201c565b61003a60201b60201c565b6100fe565b600033905090565b60008060009054906101000a900473ffffffffffffffffffffffffffffffffffffffff169050816000806101000a81548173ffffffffffffffffffffffffffffffffffffffff021916908373ffffffffffffffffffffffffffffffffffffffff1602179055508173ffffffffffffffffffffffffffffffffffffffff168173ffffffffffffffffffffffffffffffffffffffff167f8be0079c531659141344cd1fd0a4f28419497f9722a3daafe3b4186f6b6457e060405160405180910390a35050565b61133d8061010d6000396000f3fe6080604052600436106100c65760003560e01c806388db6ac61161007f578063aa3d9a1511610059578063aa3d9a15146102f8578063d15b223e14610335578063e88127881461035e578063f2fde38b1461039b57610154565b806388db6ac6146102675780638da5cb5b146102a45780638f97994b146102cf57610154565b8063069fdaae146101595780631f14df69146101825780633bed33ce146101bf5780634762b976146101e85780634b1e4aa514610225578063715018a61461025057610154565b366101545734600360003373ffffffffffffffffffffffffffffffffffffffff1673ffffffffffffffffffffffffffffffffffffffff16815260200190815260200160002060007f45746800000000000000000000000000000000000000000000000000000000008152602001908152602001600020600082825461014b91906110f7565b92505081905550005b600080fd5b34801561016557600080fd5b50610180600480360381019061017b9190610d6f565b6103c4565b005b34801561018e57600080fd5b506101a960048036038101906101a49190610cd5565b61044b565b6040516101b69190611087565b60405180910390f35b3480156101cb57600080fd5b506101e660048036038101906101e19190610daf565b610470565b005b3480156101f457600080fd5b5061020f600480360381019061020a9190610daf565b610616565b60405161021c919061100c565b60405180910390f35b34801561023157600080fd5b5061023a61063a565b6040516102479190610fea565b60405180910390f35b34801561025c57600080fd5b50610265610692565b005b34801561027357600080fd5b5061028e60048036038101906102899190610d42565b6106a6565b60405161029b9190611087565b60405180910390f35b3480156102b057600080fd5b506102b9610700565b6040516102c69190610f6f565b60405180910390f35b3480156102db57600080fd5b506102f660048036038101906102f19190610ddc565b610729565b005b34801561030457600080fd5b5061031f600480360381019061031a9190610d42565b6108e8565b60405161032c9190610f6f565b60405180910390f35b34801561034157600080fd5b5061035c60048036038101906103579190610ddc565b61091b565b005b34801561036a57600080fd5b5061038560048036038101906103809190610d42565b610a49565b6040516103929190610f6f565b60405180910390f35b3480156103a757600080fd5b506103c260048036038101906103bd9190610ca8565b610a86565b005b6103cc610b0a565b6001829080600181540180825580915050600190039060005260206000200160009091909190915055806002600084815260200190815260200160002060006101000a81548173ffffffffffffffffffffffffffffffffffffffff021916908373ffffffffffffffffffffffffffffffffffffffff1602179055505050565b6003602052816000526040600020602052806000526040600020600091509150505481565b80600360003373ffffffffffffffffffffffffffffffffffffffff1673ffffffffffffffffffffffffffffffffffffffff16815260200190815260200160002060007f45746800000000000000000000000000000000000000000000000000000000008152602001908152602001600020541015610523576040517f08c379a000000000000000000000000000000000000000000000000000000000815260040161051a90611047565b60405180910390fd5b80600360003373ffffffffffffffffffffffffffffffffffffffff1673ffffffffffffffffffffffffffffffffffffffff16815260200190815260200160002060007f4574680000000000000000000000000000000000000000000000000000000000815260200190815260200160002060008282546105a3919061114d565b925050819055503373ffffffffffffffffffffffffffffffffffffffff16816040516105ce90610f5a565b60006040518083038185875af1925050503d806000811461060b576040519150601f19603f3d011682016040523d82523d6000602084013e610610565b606091505b50505050565b6001818154811061062657600080fd5b906000526020600020016000915090505481565b6060600180548060200260200160405190810160405280929190818152602001828054801561068857602002820191906000526020600020905b815481526020019060010190808311610674575b5050505050905090565b61069a610b0a565b6106a46000610b88565b565b6000600360003373ffffffffffffffffffffffffffffffffffffffff1673ffffffffffffffffffffffffffffffffffffffff1681526020019081526020016000206000838152602001908152602001600020549050919050565b60008060009054906101000a900473ffffffffffffffffffffffffffffffffffffffff16905090565b81600360003373ffffffffffffffffffffffffffffffffffffffff1673ffffffffffffffffffffffffffffffffffffffff16815260200190815260200160002060008381526020019081526020016000205410156107bc576040517f08c379a00000000000000000000000000000000000000000000000000000000081526004016107b390611047565b60405180910390fd5b81600360003373ffffffffffffffffffffffffffffffffffffffff1673ffffffffffffffffffffffffffffffffffffffff1681526020019081526020016000206000838152602001908152602001600020600082825461081c919061114d565b925050819055506002600082815260200190815260200160002060009054906101000a900473ffffffffffffffffffffffffffffffffffffffff1673ffffffffffffffffffffffffffffffffffffffff1663a9059cbb33846040518363ffffffff1660e01b8152600401610891929190610fc1565b602060405180830381600087803b1580156108ab57600080fd5b505af11580156108bf573d6000803e3d6000fd5b505050506040513d601f19601f820116820180604052508101906108e39190610d15565b505050565b60026020528060005260406000206000915054906101000a900473ffffffffffffffffffffffffffffffffffffffff1681565b81600360003373ffffffffffffffffffffffffffffffffffffffff1673ffffffffffffffffffffffffffffffffffffffff1681526020019081526020016000206000838152602001908152602001600020600082825461097b91906110f7565b925050819055506002600082815260200190815260200160002060009054906101000a900473ffffffffffffffffffffffffffffffffffffffff1673ffffffffffffffffffffffffffffffffffffffff166323b872dd3330856040518463ffffffff1660e01b81526004016109f293929190610f8a565b602060405180830381600087803b158015610a0c57600080fd5b505af1158015610a20573d6000803e3d6000fd5b505050506040513d601f19601f82011682018060405250810190610a449190610d15565b505050565b60006002600083815260200190815260200160002060009054906101000a900473ffffffffffffffffffffffffffffffffffffffff169050919050565b610a8e610b0a565b600073ffffffffffffffffffffffffffffffffffffffff168173ffffffffffffffffffffffffffffffffffffffff161415610afe576040517f08c379a0000000000000000000000000000000000000000000000000000000008152600401610af590611027565b60405180910390fd5b610b0781610b88565b50565b610b12610c4c565b73ffffffffffffffffffffffffffffffffffffffff16610b30610700565b73ffffffffffffffffffffffffffffffffffffffff1614610b86576040517f08c379a0000000000000000000000000000000000000000000000000000000008152600401610b7d90611067565b60405180910390fd5b565b60008060009054906101000a900473ffffffffffffffffffffffffffffffffffffffff169050816000806101000a81548173ffffffffffffffffffffffffffffffffffffffff021916908373ffffffffffffffffffffffffffffffffffffffff1602179055508173ffffffffffffffffffffffffffffffffffffffff168173ffffffffffffffffffffffffffffffffffffffff167f8be0079c531659141344cd1fd0a4f28419497f9722a3daafe3b4186f6b6457e060405160405180910390a35050565b600033905090565b600081359050610c63816112ab565b92915050565b600081519050610c78816112c2565b92915050565b600081359050610c8d816112d9565b92915050565b600081359050610ca2816112f0565b92915050565b600060208284031215610cbe57610cbd611202565b5b6000610ccc84828501610c54565b91505092915050565b60008060408385031215610cec57610ceb611202565b5b6000610cfa85828601610c54565b9250506020610d0b85828601610c7e565b9150509250929050565b600060208284031215610d2b57610d2a611202565b5b6000610d3984828501610c69565b91505092915050565b600060208284031215610d5857610d57611202565b5b6000610d6684828501610c7e565b91505092915050565b60008060408385031215610d8657610d85611202565b5b6000610d9485828601610c7e565b9250506020610da585828601610c54565b9150509250929050565b600060208284031215610dc557610dc4611202565b5b6000610dd384828501610c93565b91505092915050565b60008060408385031215610df357610df2611202565b5b6000610e0185828601610c93565b9250506020610e1285828601610c7e565b9150509250929050565b6000610e288383610ea1565b60208301905092915050565b610e3d81611181565b82525050565b6000610e4e826110b2565b610e5881856110ca565b9350610e63836110a2565b8060005b83811015610e94578151610e7b8882610e1c565b9750610e86836110bd565b925050600181019050610e67565b5085935050505092915050565b610eaa8161119f565b82525050565b610eb98161119f565b82525050565b6000610ecc6026836110e6565b9150610ed782611207565b604082019050919050565b6000610eef6012836110e6565b9150610efa82611256565b602082019050919050565b6000610f126020836110e6565b9150610f1d8261127f565b602082019050919050565b6000610f356000836110db565b9150610f40826112a8565b600082019050919050565b610f54816111c9565b82525050565b6000610f6582610f28565b9150819050919050565b6000602082019050610f846000830184610e34565b92915050565b6000606082019050610f9f6000830186610e34565b610fac6020830185610e34565b610fb96040830184610f4b565b949350505050565b6000604082019050610fd66000830185610e34565b610fe36020830184610f4b565b9392505050565b600060208201905081810360008301526110048184610e43565b905092915050565b60006020820190506110216000830184610eb0565b92915050565b6000602082019050818103600083015261104081610ebf565b9050919050565b6000602082019050818103600083015261106081610ee2565b9050919050565b6000602082019050818103600083015261108081610f05565b9050919050565b600060208201905061109c6000830184610f4b565b92915050565b6000819050602082019050919050565b600081519050919050565b6000602082019050919050565b600082825260208201905092915050565b600081905092915050565b600082825260208201905092915050565b6000611102826111c9565b915061110d836111c9565b9250827fffffffffffffffffffffffffffffffffffffffffffffffffffffffffffffffff03821115611142576111416111d3565b5b828201905092915050565b6000611158826111c9565b9150611163836111c9565b925082821015611176576111756111d3565b5b828203905092915050565b600061118c826111a9565b9050919050565b60008115159050919050565b6000819050919050565b600073ffffffffffffffffffffffffffffffffffffffff82169050919050565b6000819050919050565b7f4e487b7100000000000000000000000000000000000000000000000000000000600052601160045260246000fd5b600080fd5b7f4f776e61626c653a206e6577206f776e657220697320746865207a65726f206160008201527f6464726573730000000000000000000000000000000000000000000000000000602082015250565b7f496e73756666696369656e742066756e64730000000000000000000000000000600082015250565b7f4f776e61626c653a2063616c6c6572206973206e6f7420746865206f776e6572600082015250565b50565b6112b481611181565b81146112bf57600080fd5b50565b6112cb81611193565b81146112d657600080fd5b50565b6112e28161119f565b81146112ed57600080fd5b50565b6112f9816111c9565b811461130457600080fd5b5056fea26469706673582212209a765e90c6c2678cc702a1d084e4efaaf7e4f0734f88ec3ba2f66e6ed1d8c3d064736f6c63430008070033",
  "linkReferences": {},
  "deployedLinkReferences": {}
}